S00E000062616E6E65722E73726563A0
S113000053C06DC06CC06BC06AC069C068C067C0B3
S113001066C065C064C063C062C061C060C05FC0C8
S11300205EC05DC05CC05BC05AC059C058C057C0F8
S113003056C055C0000000000000000E11150C0051
S11300401F151511001F101010000F10100F001FA6
S1130050040A11001F040A1100111F11000E1115CA
S11300600C0000000000001F060C1F00111F1100EF
S11300701F151511000F10100F001F101C101F006A
S113008010110F001E05051E001E05051E001F058C
S11300900D160000170017000000000A0000110EE2
S11300A0000000000000000011241FBECFEFD4E0C8
S11300B0DEBFCDBF11E0A0E0B1E0EEE4F2E002C0AB
S11300C005900D92A230B107D9F711E0A2E0B1E09A
S11300D001C01D92A230B107E1F702D0B6C090CFA3
S11300E02F923F924F925F926F927F928F929F9244
S11300F0AF92BF92CF92DF92EF92FF920F931F9332
S1130100DF93CF9300D00F92CDB7DEB787B18FEFD7
S113011087B98AB18F678AB984B1886F84B981E05D
S113012085B99090000150E0E0E42E2E24EC39E0F3
S113013070E2372E60E1562E48E0442E94E0692E9A
S113014082E0782E8824839401C050E05915E8F7A2
S113015040E0852F90E0FC01EC5CFF4FE4916E2FB2
S1130160660FAE2EAA0CAA0CAA0CFC01EB5CFF4F86
S1130170E491BE2EBB0CCE2ECC0CCC0CCC0CFC01D2
S1130180EA5CFF4FE491DE2EDD0CEE2EEE0CEE0C5D
S1130190EE0CFC01E95CFF4FE491FE2EFF0C0E2FE8
S11301A0000F000F000FFC01E85CFF4FE4911E2FCD
S11301B0110FBE2FBB0FBB0FBB0FFC01E75CFF4F42
S11301C0F491F983AF2FAA0FAA0FAA0F865C9F4F51
S11301D0FC017491F72FFF0FFF0FFF0FFA832BB869
S11301E068B968B9A5B8C9010197F1F73BB8B8B8BF
S11301F0C5B8C9010197F1F75BB8D8B8E5B8C9012A
S11302000197F1F74BB8F8B805B9C9010197F1F7AF
S11302106BB818B9B5B9C9010197F1F77BB88981F1
S1130220880F88B9A5B9C9010197F1F78BB8872F51
S1130230880F88B98A8185B9C9010197F1F74F5FA1
S11102404A3009F0CCCF5F5F81CFF894FFCF36
S105024E6C003E
S9030000FC
