:1000000053C06DC06CC06BC06AC069C068C067C0B7
:1000100066C065C064C063C062C061C060C05FC0CC
:100020005EC05DC05CC05BC05AC059C058C057C0FC
:1000300056C055C0000000000000000E11150C0055
:100040001F151511001F101010000F10100F001FAA
:10005000040A11001F040A1100111F11000E1115CE
:100060000C0000000000001F060C1F00111F1100F3
:100070001F151511000F10100F001F101C101F006E
:1000800010110F001E05051E001E05051E001F0590
:100090000D160000170017000000000A0000110EE6
:1000A000000000000000000011241FBECFEFD4E0CC
:1000B000DEBFCDBF11E0A0E0B1E0E6EFF1E002C0AD
:1000C00005900D92A230B107D9F711E0A2E0B1E09E
:1000D00001C01D92A230B107E1F702D08AC090CFD3
:1000E0007F928F929F92AF92BF92CF92DF92EF92C8
:1000F000FF920F931F9387B18FEF87B98AB18F67F4
:100100008AB984B1886F84B981E085B970900001A3
:10011000FF2470E4872E24EC39E060E2962E50E153
:10012000A52E48E0B42E94E0C92E82E0D82EEE240D
:10013000E39401C0FF24F714E8F740E08F2D90E02E
:10014000FC01EC5CFF4F0491000F000F000FFC015D
:10015000EB5CFF4F1491110F110F110FFC01EA5CC2
:10016000FF4FB491BB0FBB0FBB0FFC01E95CFF4F0E
:10017000A491AA0FAA0FAA0FFC01E85CFF4F74918B
:10018000770F770F770FFC01E75CFF4F6491660FE5
:10019000660F660F865C9F4FFC015491550F550FFB
:1001A000550F8BB805B9C9010197F1F79BB815B97F
:1001B000C9010197F1F7ABB8B5B9C9010197F1F7DA
:1001C000BBB8A5B9C9010197F1F7CBB875B9C90199
:1001D0000197F1F7DBB865B9C9010197F1F7EBB801
:1001E00055B9C9010197F1F74F5F4F30D1F6F3943C
:0601F000A2CFF894FFCF3E
:0201F6006C009B
:00000001FF
