:1000000019C033C032C031C030C02FC02EC02DC087
:100010002CC02BC02AC029C028C027C026C025C09C
:1000200024C023C022C021C020C01FC01EC01DC0CC
:100030001CC01BC011241FBECFEFD4E0DEBFCDBF5C
:1000400011E0A0E0B1E0ECEEF0E002C005900D920E
:10005000AE30B107D9F711E0AEE0B1E001C01D92BA
:10006000AE30B107E1F70ED03FC0CACF8AB18F677B
:100070008AB984B1886F84B987B18E6387B90895CE
:1000800008950895CF93DF938AB18F678AB984B1B9
:10009000886F84B987B18E6387B920E0C1E0D0E072
:1000A00060ED77E040EA5FE0A22FB0E0CE01022EE3
:1000B00002C0880F991F0A94E2F78BB9FD01E05046
:1000C000FF4F808185B9CB010197F1F715B8A95F82
:1000D000BE4F8C9188B9CA010197F1F718B82F5F0C
:0C00E000273010F320E0E0CFF894FFCFB1
:0E00EC00F8F8D8D8D8F8F8001C1C1C1C1C0012
:00000001FF
