S00C000064656D6F2E7372656373
S113000019C033C032C031C030C02FC02EC02DC083
S11300102CC02BC02AC029C028C027C026C025C098
S113002024C023C022C021C020C01FC01EC01DC0C8
S11300301CC01BC011241FBECFEFD4E0DEBFCDBF58
S113004011E0A0E0B1E0EAEDF0E002C005900D920D
S1130050A830B107D9F711E0A8E0B1E001C01D92C2
S1130060AF30B107E1F70ED036C0CACF8AB18F677F
S11300708AB984B1886F84B987B18E6387B90895CA
S1130080089508958AB18F678AB984B1886F84B955
S113009087B18E6387B920E061E070E040ED57E0FE
S11300A0A22FB0E0CB01022E02C0880F991F0A9440
S11300B0E2F78BB9FD01E050FF4F808185B9A85F5D
S11300C0BE4F8C9188B9CA010197F1F72F5F273091
S10D00D038F320E0E5CFF894FFCFE9
S10B00DAF8888888F800000092
S9030000FC
