:1000000019C033C032C031C030C02FC02EC02DC087
:100010002CC02BC02AC029C028C027C026C025C09C
:1000200024C023C022C021C020C01FC01EC01DC0CC
:100030001CC01BC011241FBECFEFD4E0DEBFCDBF5C
:1000400011E0A0E0B1E0E8EAF8E102C005900D920D
:10005000A430B107D9F711E0A4E0B1E001C01D92CE
:10006000A831B107E1F764D21DCCCACF80E090E09F
:100070000000019685369105D9F7089580E090E05B
:1000800000000196893C9105D9F7089580E090E041
:100090000000019623E0893E9207D1F7089580E0A1
:1000A00090E000000000000000000000019621E642
:1000B000893A9207B1F708958DE085B980910E01D4
:1000C00080688BB980E090E000000196853691054C
:1000D000D9F780E88BB985E185B9809110018068F6
:1000E0008BB980E090E00000019685369105D9F744
:1000F00080E88BB985E285B98091120180688BB95F
:1001000080E090E00000019685369105D9F780E8FF
:100110008BB985E485B98091140180688BB980E042
:1001200090E00000019685369105D9F780E88BB9FB
:1001300085E885B98091160180688BB980E090E0F0
:100140000000019685369105D9F780E88BB985E0E6
:1001500085B983E088B98091040180688BB980E01B
:1001600090E000000196893C9105D9F780E88BB9B1
:1001700085E088B98091060180688BB980E090E0C5
:1001800000000196893C9105D9F780E88BB989E098
:1001900088B98091080180688BB980E090E0000008
:1001A0000196893C9105D9F780E88BB981E188B93E
:1001B00080910A0180688BB980E090E00000019690
:1001C000893C9105D9F780E88BB981E288B98091A3
:1001D0000C0180688BB980E090E000000196893CBA
:1001E0009105D9F780E88BB981E088B908958FE748
:1001F00090E090930F0180930E01909311018093F2
:100200001001909313018093120190931501809334
:100210001401909317018093160190930501809328
:100220000401909307018093060190930901809344
:10023000080190930B0180930A0190930D01809324
:100240000C0108958FE790E09093050180930401DD
:100250009093070180930601909309018093080110
:1002600090930B0180930A0190930D0180930C01F0
:100270000895CF93DF93109205011092040110921C
:1002800007011092060188E090E0909309018093A5
:10029000080110920B0110920A0110920D011092A8
:1002A0000C01C0E0D0E008DF2196CA30D105D9F7B3
:1002B000109205011092040128E030E0309307010C
:1002C0002093060184E190E0909309018093080156
:1002D00030930B0120930A0110920D0110920C0132
:1002E000C0E0D0E0E9DE2196CA30D105D9F748E078
:1002F00050E0509305014093040124E130E0309335
:1003000007012093060182E290E090930901809317
:10031000080130930B0120930A0150930D01409383
:100320000C01C0E0D0E0C8DE2196CA30D105D9F773
:1003300044E150E0509305014093040122E230E093
:10034000309307012093060181E490E09093090126
:100350008093080130930B0120930A0150930D0103
:1003600040930C01C0E0D0E0A7DE2196CA30D10551
:10037000D9F722E230E0309305012093040181E4B3
:1003800090E090930701809306011092090110926A
:10039000080190930B0180930A0130930D01209383
:1003A0000C01C0E0D0E088DE2196CA30D105D9F733
:1003B00081E490E09093050180930401109207017D
:1003C00010920601109209011092080110920B017F
:1003D00010920A0190930D0180930C01C0E0D0E0CF
:1003E0006BDE2196CA30D105D9F7DF91CF91089500
:1003F000DB0120E430E002C0359527958A95E2F7CD
:10040000AA0FBB1FFD01E25FFE4F0190F081E02DBE
:10041000E223F323309711F0E1E0F0E0AC5FBE4F50
:100420008D919C9128233923232B09F03296CF01FB
:100430000895A82F40FF13C0FB01EE0FFF1FE25FDE
:10044000FE4F80E490E00A2E02C0959587950A94AD
:10045000E2F720813181822B932B9183808341FFAE
:1004600012C0FB01EE0FFF1FEC5FFE4F80E490E037
:1004700002C095958795AA95E2F720813181822B5C
:10048000932B918380830895282FDB0140FF0FC0B9
:10049000FB01EE0FFF1FE25FFE4F80E490E0022EB3
:1004A00002C0959587950A94E2F79183808341FF76
:1004B0000DC0AA0FBB1FAC5FBE4F80E490E002C02E
:1004C000959587952A95E2F78D939C930895FB0166
:1004D00020E430E0062E02C0359527950A94E2F715
:1004E00020953095EE0FFF1FDF01A25FBE4F8D916B
:1004F0009C911197822393238D939C93EC5FFE4FE5
:10050000808191812823392331832083089580E0DD
:1005100090E0FC01E25FFE4F11821082FC01EC5F73
:10052000FE4F1182108202968A30910591F708954C
:100530002F923F924F925F926F927F928F929F92F3
:10054000AF92BF92CF92DF92EF92FF920F931F93E1
:10055000DF93CF93CDB7DEB7C85CD1400FB6F89428
:10056000DEBF0FBECDBF8AEF84B985E085B98EEFBF
:1005700087B981E088B98FE78AB980E88BB982EFC3
:100580008093800089E1809381008CEC90E09093CF
:100590008B0080938A009E012F5F3F4FCB55DE4F2B
:1005A00039832883C55AD140CE018B559E4FCB53FA
:1005B000DE4F99838883C55CD14001E010E0A9D863
:1005C00064E670E0B5D80696CB55DE4FE881F98138
:1005D000C55AD140918380839CD865E070E0BCD837
:1005E000CB55DE4FE881F981C55AD1409383828390
:1005F000158304833696CB55DE4FF983E883C55ABD
:10060000D140CB53DE4F28813981C55CD140E21700
:10061000F307A9F680E090E0FC01E25FFE4F118253
:100620001082FC01EC5FFE4F1182108202968A302C
:10063000910591F7C555DE4F19821882CB5AD140EA
:10064000C755DE4F19821882C95AD140C955DE4FAD
:1006500019821882C75AD14066247724EE24FF24D9
:10066000CF53DE4F19821882C15CD140222433243B
:1006700081E090E0C154DE4F99838883CF5BD14005
:100680008824992444245524E8E5F2E0C354DE4F3D
:10069000F983E883CD5BD14024E630E0C554DE4FDA
:1006A00039832883CB5BD140C754DE4F198218822F
:1006B000C95BD140C954DE4F19821882C75BD14053
:1006C000CB54DE4F19821882C55BD140CD54DE4F2A
:1006D00019821882C35BD140CF54DE4F1982188231
:1006E000C15BD140C155DE4F19821882CF5AD1402B
:1006F000C355DE4F19821882CD5AD140CE0189559B
:100700009E4FC953DE4F99838883C75CD140EAE688
:10071000F0E0CD53DE4FF983E883C35CD1409FE71F
:10072000C92ED12CCD54DE4F28813981C35BD140F5
:100730002130310509F46CC5CD54DE4FE881F981D3
:10074000C35BD140EF2B61F4C755DE4F198218828D
:10075000C95AD140C155DE4F19821882CF5AD140B3
:10076000CF54DE4F28813981C15BD140232B09F062
:1007700026C5C355DE4F19821882CD5AD140C555C2
:10078000DE4F19821882CB5AD140CD54DE4F88817A
:100790009981C35BD140029769F4C755DE4FE88168
:1007A000F981C95AD1403196C755DE4FF983E883A4
:1007B000C95AD140CF54DE4F28813981C15BD14025
:1007C0002230310569F4C555DE4F88819981CB5AB5
:1007D000D1400196C555DE4F99838883CB5AD140CD
:1007E000C755DE4FE881F981C95AD140F29709F423
:1007F000CFC4C555DE4F28813981CB5AD140223331
:10080000310509F4B7C4C754DE4F88819981C95BAB
:10081000D1400196C754DE4F99838883C95BD1408C
:100820000894E11CF11CC955DE4FE881F981C75AD3
:10083000D1403196C955DE4FF983E883C75AD1407C
:10084000F29709F443C4F301EE0FFF1FEC5FFE4F74
:10085000808191818064918380832EDCC754DE4F38
:1008600088819981C95BD140845F9140A1F4C954CA
:10087000DE4F28813981C75BD1402F5F3F4FC9547C
:10088000DE4F39832883C75BD140C754DE4F1982BE
:100890001882C95BD140C954DE4F88819981C75BFA
:1008A000D140019709F4CAC3C954DE4FE881F981E8
:1008B000C75BD140329709F04DC688E698E3909324
:1008C00087008093860084E39CE190938900809365
:1008D0008800C954DE4F28813981C75BD14026305A
:1008E000310509F04DC685EC9CE29093870080931A
:1008F000860082E696E19093890080938800C9542F
:10090000DE4F28813981C75BD1402A30310509F09B
:100910004CC682E893E29093870080938600E1ECD6
:10092000F1E1F0938900E09388001899A9C4C4010B
:100930008160CD54DE4FE881F981C35BD1403297AD
:1009400008F44AC61A9984C48260CF54DE4FE88105
:10095000F981C15BD140329708F488C6309983C4CD
:1009600084604F9984C478E0872E912C882A992A34
:1009700034E6E316F10409F4E4C0CF53DE4F2881D6
:100980003981C15CD1402F5F3F4FCF53DE4F398358
:100990002883C15CD140C354DE4F88819981CD5BEF
:1009A000D1402817390709F4AAC0CD53DE4FE8819A
:1009B000F981C35CD140E215F30509F0B3CEC3540D
:1009C000DE4F28813981CD5BD14029513040C3545D
:1009D000DE4F39832883CD5BD140C554DE4F8881FB
:1009E0009981CB5BD1400A97C554DE4F99838883A8
:1009F000CB5BD1400F9780F429513040C354DE4F78
:100A000039832883CD5BD140E4E6F0E0C554DE4F66
:100A1000F983E883CB5BD140C354DE4F2881398111
:100A2000CD5BD1402436310540F422533040C354CD
:100A3000DE4F39832883CD5BD14044245524D092A6
:100A40000501C0920401D0920701C0920601D09224
:100A50000901C0920801D0920B01C0920A01D09204
:100A60000D01C0920C0128DB0894411C511C3CE292
:100A7000431631E0530619F78E010F5F1F4F49D619
:100A8000C554DE4F68817981CB5BD14051D6059644
:100A9000F801918380833DD665E070E05DD6F80172
:100AA0009383828321E030E0358324830A5F1F4FE4
:100AB000CB53DE4F88819981C55CD1408017910767
:100AC000F1F6C154DE4FE881F981CF5BD140319618
:100AD000C154DE4FF983E883CF5BD1402224332415
:100AE000C554DE4F28813981CB5BD1402A5F3F4F0F
:100AF000CD53DE4F39832883C35CD14013CEFE0132
:100B000031960AC03696CB53DE4F88819981C55CF9
:100B1000D1408E179F0759F0808191810197918371
:100B200080838F5F9F4F71F715821482EBCF0894FB
:100B3000211C311CCF53DE4F19821882C15CD14079
:100B400034CF80E090E0FC01E25FFE4F1182108222
:100B5000FC01EC5FFE4F1182108202968A309105F3
:100B600091F784FE0AC06114710419F008946108B9
:100B700071088FEE9FEF8822992285FE0CC094E0C9
:100B80006916710408F4E2C454E0652E712CEFED8F
:100B9000FFEF8E229F2286FE41C08EDA7301EE0C9B
:100BA000FF1CF701EC5FFE4F80E290E091838083B1
:100BB000F701E25FFE4F918380835E010894A11CE0
:100BC000B11CF50100E010E00AC03696CB53DE4FB1
:100BD00028813981C55CD1402E173F0791F084816F
:100BE0009581019791F7828193818615970569F721
:100BF00080819181019749F7158214820F5F1F4F01
:100C0000E4CF0115110509F44AC30115110509F4D2
:100C100073C32FEB3FEF822293224EDA87FEB1C0DF
:100C2000C154DE4F88819981CF5BD140892B09F473
:100C3000A4C0FE01319680819181079710F415823E
:100C400014823696CB53DE4F28813981C55CD14062
:100C50002E173F0781F70DDB80E090E06AE37AE230
:100C6000EDE1F5E1A5ECBCE202E616E138E6E32EA3
:100C70003FE2F32E25EBA22E27E1B22ECB54DE4F1E
:100C800028813981C55BD1402F5F3F4FCB54DE4F68
:100C900039832883C55BD140205D374039F4019604
:100CA000CB54DE4F19821882C55BD1408C30910540
:100CB00069F18B30910509F0EEC328E638E33093F3
:100CC00087002093860024E33CE130938900209341
:100CD00088008730910509F0EDC3B0938700A09399
:100CE000860010938900009388008330910509F0F5
:100CF000ECC322E833E2309387002093860021EC96
:100D000031E13093890020938800B8CF20EC3BE399
:100D1000309387002093860020EE3DE130938900D8
:100D20002093880088309105A1F6F0928700E09228
:100D30008600B0928900A092880084309105A9F6BF
:100D400024EA35E230938700209386002DEC32E1CF
:100D500030938900209388008D30910508F48ECF60
:100D6000C154DE4F88819981CF5BD1400197C15436
:100D7000DE4F99838883CF5BD140EFE7FFEF8E2270
:100D80009F22E980FA80DE011396A7016D917C9184
:100D9000119712961C91129710FF13C0FB01EE0FD2
:100DA000FF1FE25FFE4F80E490E0042E02C09595A5
:100DB00087950A94E2F720813181822B932B9183CE
:100DC000808311FF12C0FB01EE0FFF1FEC5FFE4F8F
:100DD00080E490E002C0959587954A95E2F72081DE
:100DE0003181822B932B9183808314964D915C915A
:100DF00015974115510571F01696C953DE4FE881DC
:100E0000F981C75CD140AE17BF0709F0BFCFEE2410
:100E1000FF24B3CD18968D919C911997019761F796
:100E2000FCE24F16F1E05F0688F5D0920F01C09208
:100E30000E01D0921101C0921001D0921301C09204
:100E40001201D0921501C0921401D0921701C092E4
:100E50001601D0920501C0920401D0920701C09200
:100E60000601D0920901C0920801D0920B01C092F4
:100E70000A01D0920D01C0920C011ED90894411CA8
:100E8000511C2CE2421621E0520678F220E030E0BC
:100E900080E090E000000196893C9105D9F72F5F32
:100EA0003F4F42E02A38340799F700E010E0D09233
:100EB0000F01C0920E01D0921101C0921001D09288
:100EC0001301C0921201D0921501C0921401D09268
:100ED0001701C0921601D0920501C0920401D09270
:100EE0000701C0920601D0920901C0920801D09278
:100EF0000B01C0920A01D0920D01C0920C01DCD806
:100F00000F5F1F4F81E00C32180789F620E030E0B8
:100F100080E090E000000196893C9105D9F72F5FB1
:100F20003F4F92E02A38390799F700E010E0D0925D
:100F30000F01C0920E01D0921101C0921001D09207
:100F40001301C0921201D0921501C0921401D092E7
:100F50001701C0921601D0920501C0920401D092EF
:100F60000701C0920601D0920901C0920801D092F7
:100F70000B01C0920A01D0920D01C0920C019CD8C5
:100F80000F5F1F4FE1E00C321E0789F620E030E0D2
:100F900080E090E000000196893C9105D9F72F5F31
:100FA0003F4FF2E02A383F0799F7109287001092DE
:100FB000860010928900109288000000309933C09A
:100FC00024E030E0822A932A86FEF7CFFE01319694
:100FD00002C0E080F180E20CF31CF182E08221E0AB
:100FE00030E0358324833696CB53DE4F8881998158
:100FF000C55CD1408E179F0761F766247724EE24E5
:10100000FF2422243324C154DE4F39832883CF5B4D
:10101000D14071E0472E512CC754DE4F19821882FF
:10102000C95BD140AACC82FE04C080E490E0882A4B
:10103000992AEBEFFFEF8E229F22C6CF80EC9BE335
:10104000909387008093860080EE9DE190938900C5
:1010500080938800C954DE4FE881F981C75BD14095
:10106000359709F036CC88E69FE29093870080930D
:10107000860085EB97E19093890080938800C9549E
:10108000DE4F28813981C75BD1402930310509F015
:1010900036CC84EA95E29093870080938600EDEC4D
:1010A000F2E1F0938900E0938800C954DE4F288173
:1010B0003981C75BD1402D30310509F036CCC95498
:1010C000DE4F19821882C75BD1402FCC80E090E0C0
:1010D000FC01E25FFE4F11821082FC01EC5FFE4FCB
:1010E0001182108202968A30910591F7DE011196E5
:1010F0007C9112964D915C91139714966C91149774
:1011000060FF13C0FA01EE0FFF1FE25FFE4F80E4A5
:1011100090E0072E02C0959587950A94E2F720810A
:101120003181822B932B9183808361FF12C0FA015E
:10113000EE0FFF1FEC5FFE4F80E490E002C095953C
:1011400087957A95E2F720813181822B932B9183C9
:1011500080831696CB55DE4F28813981C55AD14000
:101160002A173B0729F6C955DE4F19821882C75A3C
:10117000D14069CB34E063167104B8F40894611C63
:10118000711CC555DE4F19821882CB5AD1403BCB1A
:101190006114710419F0089461087108C755DE4F95
:1011A00019821882C95AD14024CBC555DE4F198205
:1011B0001882CB5AD14084E0682E712C24CBCF54B6
:1011C000DE4F88819981C15BD140019709F0DDCA6A
:1011D000C355DE4FE881F981CD5AD1403196C355D0
:1011E000DE4FF983E883CD5AD140EA3FF10509F09B
:1011F000CCCA22E030E0CF54DE4F39832883C15B74
:10120000D140C355DE4F19821882CD5AD140BDCA94
:10121000C155DE4F88819981CF5AD1400196C15581
:10122000DE4F99838883CF5AD1408A3F910509F0D8
:1012300097CA82E090E0CD54DE4F99838883C35BE8
:10124000D140C155DE4F19821882CF5AD14088CA89
:1012500081FF07C08062CF54DE4F19821882C15BC4
:10126000D1408D7F7BCB82FD80648B7F7ACB83FDE9
:10127000806867EF862E6FEF962E8822992278CBB2
:1012800080FE0AC080E190E0882A992ACD54DE4F82
:1012900019821882C35BD140C4018E7F53CB0CD717
:1012A000F701EC5FFE4F80E190E091838083F701CE
:1012B000E25FFE4F91838083FE0131960BC036962C
:1012C000CB53DE4F88819981C55CD1408E179F0733
:1012D00009F49BCC84819581019789F78281938160
:1012E0008615970561F780819181029741F71582F4
:1012F00014820F5F1F4FE3CFDFD6F701EC5FFE4F85
:1013000088E090E091838083F701E25FFE4F918354
:101310008083FE0131960AC03696CB53DE4F28817A
:101320003981C55CD1402E173F0791F084819581AA
:10133000019791F7828193818615970569F78081DE
:101340009181039749F7158214820F5F1F4FE4CFF5
:101350000115110509F05DCCAFD6F701EC5FFE4F2A
:1013600084E090E091838083F701E25FFE4F9183F8
:101370008083FE0131960AC03696CB53DE4F8881BA
:101380009981C55CD1408E179F0791F0848195812A
:10139000019791F7828193818615970569F780817E
:1013A0009181049749F7158214820F5F1F4FE4CF94
:1013B0000115110509F02DCC7FD6F701EC5FFE4F2A
:1013C00022E030E031832083F701E25FFE4F31837A
:1013D0002083FE0131960AC03696CB53DE4F8881BA
:1013E0009981C55CD1408E179F0791F084819581CA
:1013F000019791F7828193818615970569F780811E
:101400009181059749F7158214820F5F1F4FE4CF32
:101410000115110509F0FDCB4FD6F701EC5FFE4F2A
:1014200021E030E031832083F701E25FFE4F31831A
:1014300020830DC026E030E0A20EB31ECB53DE4F5A
:1014400088819981C55CD1408A159B0599F0F50189
:1014500084819581019771F7828193818615970523
:1014600049F780819181069729F7158214820F5FD1
:101470001F4FE0CF012B09F0CCCB1ED6F701EC5F5C
:10148000FE4F11821082EEE0F1E0EE0EFF1EF7013A
:1014900011821082BECB8A30910539F526E435E3FE
:1014A00030938700209386002EE93AE1309389003B
:1014B000209388008630910541F5709387006093F2
:1014C0008600F0938900E09388008230910569F5E9
:1014D00027E831E2309387002093860023EC30E147
:1014E0003093890020938800C9CB8930910509F099
:1014F00019CC2DE332E3309387002093860024EC4F
:1015000038E130938900209388008530910509F0F7
:1015100014CC2CED37E230938700209386002EEE1A
:1015200033E130938900209388008130910509F0E0
:1015300013CC21EA3FE1309387002093860020ED11
:101540003FE0309389002093880098CB0894611C79
:10155000711C1DCBC954DE4F28813981C75BD14036
:101560002330310509F041C086E495E3909387006C
:10157000809386008EE99AE1909389008093880099
:10158000C954DE4F88819981C75BD140079709F024
:1015900041C08AE39AE290938700809386008DE1B0
:1015A00095E19093890080938800C954DE4F28818B
:1015B0003981C75BD1402B30310509F040C087E845
:1015C00091E29093870080938600E3ECF0E1F09342
:1015D0008900E0938800A9C921E030E0CD54DE4FB6
:1015E00039832883C35BD140ADC9C954DE4F88819C
:1015F0009981C75BD140049709F02CCD8DE392E32C
:10160000909387008093860084EC98E19093890002
:1016100080938800C954DE4FE881F981C75BD140CF
:10162000389709F02CCD8CED97E29093870080934A
:1016300086008EEE93E19093890080938800C954D0
:10164000DE4F28813981C75BD1402C30310509F04C
:101650002CCD81EA9FE19093870080938600E0ED96
:10166000FFE0F0938900E09388005FC921E030E05B
:10167000CF54DE4F39832883C15BD1406FC9A0E0CE
:10168000B0E0E4E4FBE0BDC0EC01A880B980CA8012
:10169000DB80A114B104C104D10441F484E2A82E7A
:1016A00089EDB82E8BE5C82E87E0D82EC601B5018E
:1016B0002DE133EF41E050E081D027EA31E440E012
:1016C00050E05DD07B018C01C601B5012DE133EF07
:1016D00041E050E073D0CA01B9012CEE34EF4FEF76
:1016E0005FEF4DD06E0D7F1D801F911F97FF04C0CF
:1016F0006150704080409048688379838A839B83DF
:101700009B013F77C901CDB7DEB7EAE096C0B7DFEE
:10171000089580E091E0B3DF0895A0E0B0E0809309
:10172000000190930101A0930201B0930301089579
:10173000AA1BBB1B51E107C0AA1FBB1FA617B707F7
:1017400010F0A61BB70B881F991F5A95A9F7809513
:101750009095BC01CD01089597FB092E07260AD06C
:1017600077FD04D0E5DF06D000201AF4709561956E
:101770007F4F0895F6F7909581959F4F0895629F4A
:10178000D001739FF001829FE00DF11D649FE00D79
:10179000F11D929FF00D839FF00D749FF00D659FDA
:1017A000F00D9927729FB00DE11DF91F639FB00DD9
:1017B000E11DF91FBD01CF011124089597FB092EEA
:1017C00005260ED057FD04D04BD00AD0001C38F4AB
:1017D00050954095309521953F4F4F4F5F4F08955D
:1017E000F6F790958095709561957F4F8F4F9F4F3D
:1017F00008952F923F924F925F926F927F928F92B5
:101800009F92AF92BF92CF92DF92EF92FF920F938F
:101810001F93CF93DF93CDB7DEB7CA1BDB0B0FB699
:10182000F894DEBF0FBECDBF09942A883988488856
:101830005F846E847D848C849B84AA84B984C884EC
:10184000DF80EE80FD800C811B81AA81B981CE0FE3
:10185000D11D0FB6F894DEBF0FBECDBFED010895C8
:10186000A1E21A2EAA1BBB1BFD010DC0AA1FBB1FA4
:10187000EE1FFF1FA217B307E407F50720F0A21B16
:10188000B30BE40BF50B661F771F881F991F1A9483
:1018900069F760957095809590959B01AC01BD01AD
:0818A000CF010895F894FFCF79
:0418A800010000003B
:00000001FF
